{
  "_format": "hh-sol-artifact-1",
  "contractName": "MonadFarmSwap",
  "sourceName": "contracts/MonadFarmSwap.sol",
  "abi": [
    {
      "inputs": [],
      "stateMutability": "nonpayable",
      "type": "constructor"
    },
    {
      "inputs": [
        {
          "internalType": "address",
          "name": "owner",
          "type": "address"
        }
      ],
      "name": "OwnableInvalidOwner",
      "type": "error"
    },
    {
      "inputs": [
        {
          "internalType": "address",
          "name": "account",
          "type": "address"
        }
      ],
      "name": "OwnableUnauthorizedAccount",
      "type": "error"
    },
    {
      "inputs": [],
      "name": "ReentrancyGuardReentrantCall",
      "type": "error"
    },
    {
      "anonymous": false,
      "inputs": [
        {
          "indexed": true,
          "internalType": "address",
          "name": "user",
          "type": "address"
        },
        {
          "indexed": false,
          "internalType": "uint256",
          "name": "amount",
          "type": "uint256"
        }
      ],
      "name": "FarmCoinsWithdrawn",
      "type": "event"
    },
    {
      "anonymous": false,
      "inputs": [
        {
          "indexed": true,
          "internalType": "address",
          "name": "user",
          "type": "address"
        },
        {
          "indexed": false,
          "internalType": "uint256",
          "name": "amount",
          "type": "uint256"
        },
        {
          "indexed": false,
          "internalType": "uint256",
          "name": "farmCoinsAmount",
          "type": "uint256"
        }
      ],
      "name": "NativeTokenSwapped",
      "type": "event"
    },
    {
      "anonymous": false,
      "inputs": [
        {
          "indexed": true,
          "internalType": "address",
          "name": "previousOwner",
          "type": "address"
        },
        {
          "indexed": true,
          "internalType": "address",
          "name": "newOwner",
          "type": "address"
        }
      ],
      "name": "OwnershipTransferred",
      "type": "event"
    },
    {
      "anonymous": false,
      "inputs": [
        {
          "indexed": true,
          "internalType": "address",
          "name": "tokenAddress",
          "type": "address"
        },
        {
          "indexed": false,
          "internalType": "string",
          "name": "symbol",
          "type": "string"
        },
        {
          "indexed": false,
          "internalType": "string",
          "name": "name",
          "type": "string"
        }
      ],
      "name": "TokenAdded",
      "type": "event"
    },
    {
      "anonymous": false,
      "inputs": [
        {
          "indexed": true,
          "internalType": "address",
          "name": "tokenAddress",
          "type": "address"
        },
        {
          "indexed": true,
          "internalType": "address",
          "name": "funder",
          "type": "address"
        },
        {
          "indexed": false,
          "internalType": "uint256",
          "name": "amount",
          "type": "uint256"
        }
      ],
      "name": "TokenFunded",
      "type": "event"
    },
    {
      "anonymous": false,
      "inputs": [
        {
          "indexed": true,
          "internalType": "address",
          "name": "tokenAddress",
          "type": "address"
        }
      ],
      "name": "TokenRemoved",
      "type": "event"
    },
    {
      "anonymous": false,
      "inputs": [
        {
          "indexed": true,
          "internalType": "address",
          "name": "fromToken",
          "type": "address"
        },
        {
          "indexed": true,
          "internalType": "address",
          "name": "user",
          "type": "address"
        },
        {
          "indexed": false,
          "internalType": "uint256",
          "name": "tokenAmount",
          "type": "uint256"
        },
        {
          "indexed": false,
          "internalType": "uint256",
          "name": "farmCoinsAmount",
          "type": "uint256"
        }
      ],
      "name": "TokenSwapped",
      "type": "event"
    },
    {
      "inputs": [],
      "name": "EXCHANGE_RATE",
      "outputs": [
        {
          "internalType": "uint256",
          "name": "",
          "type": "uint256"
        }
      ],
      "stateMutability": "view",
      "type": "function"
    },
    {
      "inputs": [
        {
          "internalType": "address[]",
          "name": "tokenAddresses",
          "type": "address[]"
        },
        {
          "internalType": "string[]",
          "name": "symbols",
          "type": "string[]"
        },
        {
          "internalType": "string[]",
          "name": "names",
          "type": "string[]"
        }
      ],
      "name": "addMultipleTokens",
      "outputs": [],
      "stateMutability": "nonpayable",
      "type": "function"
    },
    {
      "inputs": [
        {
          "internalType": "address",
          "name": "tokenAddress",
          "type": "address"
        },
        {
          "internalType": "string",
          "name": "symbol",
          "type": "string"
        },
        {
          "internalType": "string",
          "name": "name",
          "type": "string"
        }
      ],
      "name": "addToken",
      "outputs": [],
      "stateMutability": "nonpayable",
      "type": "function"
    },
    {
      "inputs": [
        {
          "internalType": "address",
          "name": "tokenAddress",
          "type": "address"
        },
        {
          "internalType": "uint256",
          "name": "amount",
          "type": "uint256"
        },
        {
          "internalType": "address",
          "name": "recipient",
          "type": "address"
        }
      ],
      "name": "emergencyWithdraw",
      "outputs": [],
      "stateMutability": "nonpayable",
      "type": "function"
    },
    {
      "inputs": [
        {
          "internalType": "address",
          "name": "",
          "type": "address"
        }
      ],
      "name": "farmCoinsBalance",
      "outputs": [
        {
          "internalType": "uint256",
          "name": "",
          "type": "uint256"
        }
      ],
      "stateMutability": "view",
      "type": "function"
    },
    {
      "inputs": [
        {
          "internalType": "address",
          "name": "tokenAddress",
          "type": "address"
        },
        {
          "internalType": "uint256",
          "name": "amount",
          "type": "uint256"
        }
      ],
      "name": "fundToken",
      "outputs": [],
      "stateMutability": "nonpayable",
      "type": "function"
    },
    {
      "inputs": [],
      "name": "getAllSupportedTokens",
      "outputs": [
        {
          "internalType": "address[]",
          "name": "",
          "type": "address[]"
        }
      ],
      "stateMutability": "view",
      "type": "function"
    },
    {
      "inputs": [
        {
          "internalType": "address",
          "name": "user",
          "type": "address"
        }
      ],
      "name": "getFarmCoinsBalance",
      "outputs": [
        {
          "internalType": "uint256",
          "name": "",
          "type": "uint256"
        }
      ],
      "stateMutability": "view",
      "type": "function"
    },
    {
      "inputs": [
        {
          "internalType": "address",
          "name": "tokenAddress",
          "type": "address"
        }
      ],
      "name": "getTokenInfo",
      "outputs": [
        {
          "internalType": "bool",
          "name": "isSupported",
          "type": "bool"
        },
        {
          "internalType": "uint256",
          "name": "balance",
          "type": "uint256"
        },
        {
          "internalType": "uint256",
          "name": "actualBalance",
          "type": "uint256"
        },
        {
          "internalType": "string",
          "name": "symbol",
          "type": "string"
        },
        {
          "internalType": "string",
          "name": "name",
          "type": "string"
        }
      ],
      "stateMutability": "view",
      "type": "function"
    },
    {
      "inputs": [],
      "name": "owner",
      "outputs": [
        {
          "internalType": "address",
          "name": "",
          "type": "address"
        }
      ],
      "stateMutability": "view",
      "type": "function"
    },
    {
      "inputs": [
        {
          "internalType": "address",
          "name": "tokenAddress",
          "type": "address"
        }
      ],
      "name": "removeToken",
      "outputs": [],
      "stateMutability": "nonpayable",
      "type": "function"
    },
    {
      "inputs": [],
      "name": "renounceOwnership",
      "outputs": [],
      "stateMutability": "nonpayable",
      "type": "function"
    },
    {
      "inputs": [
        {
          "internalType": "address",
          "name": "",
          "type": "address"
        }
      ],
      "name": "supportedTokens",
      "outputs": [
        {
          "internalType": "bool",
          "name": "isSupported",
          "type": "bool"
        },
        {
          "internalType": "uint256",
          "name": "balance",
          "type": "uint256"
        },
        {
          "internalType": "string",
          "name": "symbol",
          "type": "string"
        },
        {
          "internalType": "string",
          "name": "name",
          "type": "string"
        }
      ],
      "stateMutability": "view",
      "type": "function"
    },
    {
      "inputs": [],
      "name": "swapNativeForFarmCoins",
      "outputs": [],
      "stateMutability": "payable",
      "type": "function"
    },
    {
      "inputs": [
        {
          "internalType": "address",
          "name": "tokenAddress",
          "type": "address"
        },
        {
          "internalType": "uint256",
          "name": "amount",
          "type": "uint256"
        }
      ],
      "name": "swapTokenForFarmCoins",
      "outputs": [],
      "stateMutability": "nonpayable",
      "type": "function"
    },
    {
      "inputs": [
        {
          "internalType": "uint256",
          "name": "",
          "type": "uint256"
        }
      ],
      "name": "tokenList",
      "outputs": [
        {
          "internalType": "address",
          "name": "",
          "type": "address"
        }
      ],
      "stateMutability": "view",
      "type": "function"
    },
    {
      "inputs": [],
      "name": "totalFarmCoins",
      "outputs": [
        {
          "internalType": "uint256",
          "name": "",
          "type": "uint256"
        }
      ],
      "stateMutability": "view",
      "type": "function"
    },
    {
      "inputs": [
        {
          "internalType": "address",
          "name": "newOwner",
          "type": "address"
        }
      ],
      "name": "transferOwnership",
      "outputs": [],
      "stateMutability": "nonpayable",
      "type": "function"
    },
    {
      "stateMutability": "payable",
      "type": "receive"
    }
  ],
  "bytecode": "0x60806040523480156200001157600080fd5b5033600073ffffffffffffffffffffffffffffffffffffffff168173ffffffffffffffffffffffffffffffffffffffff1603620000885760006040517f1e4fbdf70000000000000000000000000000000000000000000000000000000081526004016200007f919062000796565b60405180910390fd5b62000099816200040d60201b60201c565b50600180819055506200013273b2f82d0f38dc453d596ad40a37799446cc89274a6040518060400160405280600681526020017f6170724d4f4e00000000000000000000000000000000000000000000000000008152506040518060400160405280600b81526020017f417072696c204d6f6e6164000000000000000000000000000000000000000000815250620004d160201b60201c565b620001c373fe140e1dce99be9f4f15d657cd9b7bf622270c506040518060400160405280600481526020017f59414b49000000000000000000000000000000000000000000000000000000008152506040518060400160405280600681526020017f4d6f79616b690000000000000000000000000000000000000000000000000000815250620004d160201b60201c565b6200025473e0590015a873bf326bd645c3e1266d4db41c4e6b6040518060400160405280600481526020017f43484f47000000000000000000000000000000000000000000000000000000008152506040518060400160405280600481526020017f43686f6700000000000000000000000000000000000000000000000000000000815250620004d160201b60201c565b620002e5730f0bdebf0f83cd1ee3974779bcb7315f9808c7146040518060400160405280600381526020017f44414b00000000000000000000000000000000000000000000000000000000008152506040518060400160405280600881526020017f4d6f6c616e64616b000000000000000000000000000000000000000000000000815250620004d160201b60201c565b6200037673aeef2f6b429cb59c9b2d7bb2141ada993e8571c36040518060400160405280600481526020017f674d4f4e000000000000000000000000000000000000000000000000000000008152506040518060400160405280600481526020017f674d4f4e00000000000000000000000000000000000000000000000000000000815250620004d160201b60201c565b62000407733a98250f98dd388c211206983453837c8365bdc16040518060400160405280600581526020017f73684d4f4e0000000000000000000000000000000000000000000000000000008152506040518060400160405280600781526020017f53684d6f6e616400000000000000000000000000000000000000000000000000815250620004d160201b60201c565b62000cc2565b60008060009054906101000a900473ffffffffffffffffffffffffffffffffffffffff169050816000806101000a81548173ffffffffffffffffffffffffffffffffffffffff021916908373ffffffffffffffffffffffffffffffffffffffff1602179055508173ffffffffffffffffffffffffffffffffffffffff168173ffffffffffffffffffffffffffffffffffffffff167f8be0079c531659141344cd1fd0a4f28419497f9722a3daafe3b4186f6b6457e060405160405180910390a35050565b600073ffffffffffffffffffffffffffffffffffffffff168373ffffffffffffffffffffffffffffffffffffffff160362000543576040517f08c379a00000000000000000000000000000000000000000000000000000000081526004016200053a9062000814565b60405180910390fd5b600260008473ffffffffffffffffffffffffffffffffffffffff1673ffffffffffffffffffffffffffffffffffffffff16815260200190815260200160002060000160009054906101000a900460ff1615620005d6576040517f08c379a0000000000000000000000000000000000000000000000000000000008152600401620005cd9062000886565b60405180910390fd5b60405180608001604052806001151581526020016000815260200183815260200182815250600260008573ffffffffffffffffffffffffffffffffffffffff1673ffffffffffffffffffffffffffffffffffffffff16815260200190815260200160002060008201518160000160006101000a81548160ff0219169083151502179055506020820151816001015560408201518160020190816200067b919062000b22565b50606082015181600301908162000693919062000b22565b509050506003839080600181540180825580915050600190039060005260206000200160009091909190916101000a81548173ffffffffffffffffffffffffffffffffffffffff021916908373ffffffffffffffffffffffffffffffffffffffff1602179055508273ffffffffffffffffffffffffffffffffffffffff167f2fb34ce114a136590b874d8cf80e7652adda576578bacfa4f8023f720f56939483836040516200074492919062000c87565b60405180910390a2505050565b600073ffffffffffffffffffffffffffffffffffffffff82169050919050565b60006200077e8262000751565b9050919050565b620007908162000771565b82525050565b6000602082019050620007ad600083018462000785565b92915050565b600082825260208201905092915050565b7f496e76616c696420746f6b656e20616464726573730000000000000000000000600082015250565b6000620007fc601583620007b3565b91506200080982620007c4565b602082019050919050565b600060208201905081810360008301526200082f81620007ed565b9050919050565b7f546f6b656e20616c726561647920737570706f72746564000000000000000000600082015250565b60006200086e601783620007b3565b91506200087b8262000836565b602082019050919050565b60006020820190508181036000830152620008a1816200085f565b9050919050565b600081519050919050565b7f4e487b7100000000000000000000000000000000000000000000000000000000600052604160045260246000fd5b7f4e487b7100000000000000000000000000000000000000000000000000000000600052602260045260246000fd5b600060028204905060018216806200092a57607f821691505b60208210810362000940576200093f620008e2565b5b50919050565b60008190508160005260206000209050919050565b60006020601f8301049050919050565b600082821b905092915050565b600060088302620009aa7fffffffffffffffffffffffffffffffffffffffffffffffffffffffffffffffff826200096b565b620009b686836200096b565b95508019841693508086168417925050509392505050565b6000819050919050565b6000819050919050565b600062000a03620009fd620009f784620009ce565b620009d8565b620009ce565b9050919050565b6000819050919050565b62000a1f83620009e2565b62000a3762000a2e8262000a0a565b84845462000978565b825550505050565b600090565b62000a4e62000a3f565b62000a5b81848462000a14565b505050565b5b8181101562000a835762000a7760008262000a44565b60018101905062000a61565b5050565b601f82111562000ad25762000a9c8162000946565b62000aa7846200095b565b8101602085101562000ab7578190505b62000acf62000ac6856200095b565b83018262000a60565b50505b505050565b600082821c905092915050565b600062000af76000198460080262000ad7565b1980831691505092915050565b600062000b12838362000ae4565b9150826002028217905092915050565b62000b2d82620008a8565b67ffffffffffffffff81111562000b495762000b48620008b3565b5b62000b55825462000911565b62000b6282828562000a87565b600060209050601f83116001811462000b9a576000841562000b85578287015190505b62000b91858262000b04565b86555062000c01565b601f19841662000baa8662000946565b60005b8281101562000bd45784890151825560018201915060208501945060208101905062000bad565b8683101562000bf4578489015162000bf0601f89168262000ae4565b8355505b6001600288020188555050505b505050505050565b60005b8381101562000c2957808201518184015260208101905062000c0c565b60008484015250505050565b6000601f19601f8301169050919050565b600062000c5382620008a8565b62000c5f8185620007b3565b935062000c7181856020860162000c09565b62000c7c8162000c35565b840191505092915050565b6000604082019050818103600083015262000ca3818562000c46565b9050818103602083015262000cb9818462000c46565b90509392505050565b612d9c8062000cd26000396000f3fe60806040526004361061010d5760003560e01c806377994904116100955780639ead7222116100645780639ead72221461035a578063b293e6e314610397578063d411b8b5146103c2578063e73c2019146103eb578063f2fde38b1461041457610114565b806377994904146102bf5780637e2664d2146102fc5780638da5cb5b146103255780639440adcb1461035057610114565b806330b8a230116100dc57806330b8a230146101ed578063551512de146102165780635fa7b5841461023f57806368c4ac2614610268578063715018a6146102a857610114565b80630107e472146101195780630233f2e31461014457806314a8bd0d146101815780631f69565f146101ac57610114565b3661011457005b600080fd5b34801561012557600080fd5b5061012e61043d565b60405161013b9190611d24565b60405180910390f35b34801561015057600080fd5b5061016b60048036038101906101669190611d86565b6104cb565b6040516101789190611dcc565b60405180910390f35b34801561018d57600080fd5b50610196610514565b6040516101a39190611dcc565b60405180910390f35b3480156101b857600080fd5b506101d360048036038101906101ce9190611d86565b610520565b6040516101e4959493929190611e92565b60405180910390f35b3480156101f957600080fd5b50610214600480360381019061020f91906121d1565b610730565b005b34801561022257600080fd5b5061023d600480360381019061023891906122a4565b6108c5565b005b34801561024b57600080fd5b5061026660048036038101906102619190611d86565b610c87565b005b34801561027457600080fd5b5061028f600480360381019061028a9190611d86565b610f46565b60405161029f94939291906122f7565b60405180910390f35b3480156102b457600080fd5b506102bd611093565b005b3480156102cb57600080fd5b506102e660048036038101906102e19190611d86565b6110a7565b6040516102f39190611dcc565b60405180910390f35b34801561030857600080fd5b50610323600480360381019061031e919061234a565b6110bf565b005b34801561033157600080fd5b5061033a61139f565b6040516103479190612399565b60405180910390f35b6103586113c8565b005b34801561036657600080fd5b50610381600480360381019061037c91906123b4565b6114e2565b60405161038e9190612399565b60405180910390f35b3480156103a357600080fd5b506103ac611521565b6040516103b99190611dcc565b60405180910390f35b3480156103ce57600080fd5b506103e960048036038101906103e4919061234a565b611527565b005b3480156103f757600080fd5b50610412600480360381019061040d91906123e1565b611780565b005b34801561042057600080fd5b5061043b60048036038101906104369190611d86565b611798565b005b606060038054806020026020016040519081016040528092919081815260200182805480156104c157602002820191906000526020600020905b8160009054906101000a900473ffffffffffffffffffffffffffffffffffffffff1673ffffffffffffffffffffffffffffffffffffffff1681526020019060010190808311610477575b5050505050905090565b6000600460008373ffffffffffffffffffffffffffffffffffffffff1673ffffffffffffffffffffffffffffffffffffffff168152602001908152602001600020549050919050565b670de0b6b3a764000081565b60008060006060806000600260008873ffffffffffffffffffffffffffffffffffffffff1673ffffffffffffffffffffffffffffffffffffffff16815260200190815260200160002090508060000160009054906101000a900460ff1681600101548873ffffffffffffffffffffffffffffffffffffffff166370a08231306040518263ffffffff1660e01b81526004016105bb9190612399565b602060405180830381865afa1580156105d8573d6000803e3d6000fd5b505050506040513d601f19601f820116820180604052508101906105fc9190612481565b8360020184600301818054610610906124dd565b80601f016020809104026020016040519081016040528092919081815260200182805461063c906124dd565b80156106895780601f1061065e57610100808354040283529160200191610689565b820191906000526020600020905b81548152906001019060200180831161066c57829003601f168201915b5050505050915080805461069c906124dd565b80601f01602080910402602001604051908101604052809291908181526020018280546106c8906124dd565b80156107155780601f106106ea57610100808354040283529160200191610715565b820191906000526020600020905b8154815290600101906020018083116106f857829003601f168201915b50505050509050955095509550955095505091939590929450565b61073861181e565b8151835114801561074a575080518251145b610789576040517f08c379a00000000000000000000000000000000000000000000000000000000081526004016107809061255a565b60405180910390fd5b60005b83518110156108bf57600073ffffffffffffffffffffffffffffffffffffffff168482815181106107c0576107bf61257a565b5b602002602001015173ffffffffffffffffffffffffffffffffffffffff16141580156108535750600260008583815181106107fe576107fd61257a565b5b602002602001015173ffffffffffffffffffffffffffffffffffffffff1673ffffffffffffffffffffffffffffffffffffffff16815260200190815260200160002060000160009054906101000a900460ff16155b156108b2576108b184828151811061086e5761086d61257a565b5b60200260200101518483815181106108895761088861257a565b5b60200260200101518484815181106108a4576108a361257a565b5b60200260200101516118a5565b5b808060010191505061078c565b50505050565b6108cd61181e565b600073ffffffffffffffffffffffffffffffffffffffff168173ffffffffffffffffffffffffffffffffffffffff160361093c576040517f08c379a0000000000000000000000000000000000000000000000000000000008152600401610933906125f5565b60405180910390fd5b600073ffffffffffffffffffffffffffffffffffffffff168373ffffffffffffffffffffffffffffffffffffffff16036109ff57814710156109b3576040517f08c379a00000000000000000000000000000000000000000000000000000000081526004016109aa90612661565b60405180910390fd5b8073ffffffffffffffffffffffffffffffffffffffff166108fc839081150290604051600060405180830381858888f193505050501580156109f9573d6000803e3d6000fd5b50610c82565b600083905060008173ffffffffffffffffffffffffffffffffffffffff166370a08231306040518263ffffffff1660e01b8152600401610a3f9190612399565b602060405180830381865afa158015610a5c573d6000803e3d6000fd5b505050506040513d601f19601f82011682018060405250810190610a809190612481565b905083811015610ac5576040517f08c379a0000000000000000000000000000000000000000000000000000000008152600401610abc90612661565b60405180910390fd5b8173ffffffffffffffffffffffffffffffffffffffff1663a9059cbb84866040518363ffffffff1660e01b8152600401610b00929190612681565b6020604051808303816000875af1158015610b1f573d6000803e3d6000fd5b505050506040513d601f19601f82011682018060405250810190610b4391906126d6565b610b82576040517f08c379a0000000000000000000000000000000000000000000000000000000008152600401610b799061274f565b60405180910390fd5b600260008673ffffffffffffffffffffffffffffffffffffffff1673ffffffffffffffffffffffffffffffffffffffff16815260200190815260200160002060000160009054906101000a900460ff168015610c20575083600260008773ffffffffffffffffffffffffffffffffffffffff1673ffffffffffffffffffffffffffffffffffffffff1681526020019081526020016000206001015410155b15610c7f5783600260008773ffffffffffffffffffffffffffffffffffffffff1673ffffffffffffffffffffffffffffffffffffffff1681526020019081526020016000206001016000828254610c77919061279e565b925050819055505b50505b505050565b610c8f61181e565b600260008273ffffffffffffffffffffffffffffffffffffffff1673ffffffffffffffffffffffffffffffffffffffff16815260200190815260200160002060000160009054906101000a900460ff16610d1e576040517f08c379a0000000000000000000000000000000000000000000000000000000008152600401610d159061281e565b60405180910390fd5b60005b600380549050811015610ea4578173ffffffffffffffffffffffffffffffffffffffff1660038281548110610d5957610d5861257a565b5b9060005260206000200160009054906101000a900473ffffffffffffffffffffffffffffffffffffffff1673ffffffffffffffffffffffffffffffffffffffff1603610e975760036001600380549050610db3919061279e565b81548110610dc457610dc361257a565b5b9060005260206000200160009054906101000a900473ffffffffffffffffffffffffffffffffffffffff1660038281548110610e0357610e0261257a565b5b9060005260206000200160006101000a81548173ffffffffffffffffffffffffffffffffffffffff021916908373ffffffffffffffffffffffffffffffffffffffff1602179055506003805480610e5d57610e5c61283e565b5b6001900381819060005260206000200160006101000a81549073ffffffffffffffffffffffffffffffffffffffff02191690559055610ea4565b8080600101915050610d21565b506000600260008373ffffffffffffffffffffffffffffffffffffffff1673ffffffffffffffffffffffffffffffffffffffff16815260200190815260200160002060000160006101000a81548160ff0219169083151502179055508073ffffffffffffffffffffffffffffffffffffffff167f4c910b69fe65a61f7531b9c5042b2329ca7179c77290aa7e2eb3afa3c8511fd360405160405180910390a250565b60026020528060005260406000206000915090508060000160009054906101000a900460ff1690806001015490806002018054610f82906124dd565b80601f0160208091040260200160405190810160405280929190818152602001828054610fae906124dd565b8015610ffb5780601f10610fd057610100808354040283529160200191610ffb565b820191906000526020600020905b815481529060010190602001808311610fde57829003601f168201915b505050505090806003018054611010906124dd565b80601f016020809104026020016040519081016040528092919081815260200182805461103c906124dd565b80156110895780601f1061105e57610100808354040283529160200191611089565b820191906000526020600020905b81548152906001019060200180831161106c57829003601f168201915b5050505050905084565b61109b61181e565b6110a56000611b19565b565b60046020528060005260406000206000915090505481565b6110c7611bdd565b600260008373ffffffffffffffffffffffffffffffffffffffff1673ffffffffffffffffffffffffffffffffffffffff16815260200190815260200160002060000160009054906101000a900460ff16611156576040517f08c379a000000000000000000000000000000000000000000000000000000000815260040161114d9061281e565b60405180910390fd5b60008111611199576040517f08c379a0000000000000000000000000000000000000000000000000000000008152600401611190906128b9565b60405180910390fd5b60008290508073ffffffffffffffffffffffffffffffffffffffff166323b872dd3330856040518463ffffffff1660e01b81526004016111db939291906128d9565b6020604051808303816000875af11580156111fa573d6000803e3d6000fd5b505050506040513d601f19601f8201168201806040525081019061121e91906126d6565b61125d576040517f08c379a00000000000000000000000000000000000000000000000000000000081526004016112549061295c565b60405180910390fd5b600082905082600260008673ffffffffffffffffffffffffffffffffffffffff1673ffffffffffffffffffffffffffffffffffffffff16815260200190815260200160002060010160008282546112b4919061297c565b9250508190555080600460003373ffffffffffffffffffffffffffffffffffffffff1673ffffffffffffffffffffffffffffffffffffffff168152602001908152602001600020600082825461130a919061297c565b925050819055508060056000828254611323919061297c565b925050819055503373ffffffffffffffffffffffffffffffffffffffff168473ffffffffffffffffffffffffffffffffffffffff167f30b60ee4dc75c0fb04420331b13e9ad7f8ff8fc51eac9c97d36fb20ccbe09d6685846040516113899291906129b0565b60405180910390a3505061139b611c23565b5050565b60008060009054906101000a900473ffffffffffffffffffffffffffffffffffffffff16905090565b6113d0611bdd565b60003411611413576040517f08c379a000000000000000000000000000000000000000000000000000000000815260040161140a906128b9565b60405180910390fd5b600034905080600460003373ffffffffffffffffffffffffffffffffffffffff1673ffffffffffffffffffffffffffffffffffffffff1681526020019081526020016000206000828254611467919061297c565b925050819055508060056000828254611480919061297c565b925050819055503373ffffffffffffffffffffffffffffffffffffffff167f58f80166c45ed9f7abe5537b2e92a6afeae6d80edc6c78690dc19941097165cf34836040516114cf9291906129b0565b60405180910390a2506114e0611c23565b565b600381815481106114f257600080fd5b906000526020600020016000915054906101000a900473ffffffffffffffffffffffffffffffffffffffff1681565b60055481565b600260008373ffffffffffffffffffffffffffffffffffffffff1673ffffffffffffffffffffffffffffffffffffffff16815260200190815260200160002060000160009054906101000a900460ff166115b6576040517f08c379a00000000000000000000000000000000000000000000000000000000081526004016115ad9061281e565b60405180910390fd5b600081116115f9576040517f08c379a00000000000000000000000000000000000000000000000000000000081526004016115f0906128b9565b60405180910390fd5b60008290508073ffffffffffffffffffffffffffffffffffffffff166323b872dd3330856040518463ffffffff1660e01b815260040161163b939291906128d9565b6020604051808303816000875af115801561165a573d6000803e3d6000fd5b505050506040513d601f19601f8201168201806040525081019061167e91906126d6565b6116bd576040517f08c379a00000000000000000000000000000000000000000000000000000000081526004016116b49061274f565b60405180910390fd5b81600260008573ffffffffffffffffffffffffffffffffffffffff1673ffffffffffffffffffffffffffffffffffffffff168152602001908152602001600020600101600082825461170f919061297c565b925050819055503373ffffffffffffffffffffffffffffffffffffffff168373ffffffffffffffffffffffffffffffffffffffff167f4d88d3c273ea0179feb040cbfe8330a22cff7f8c4123a67030c22c89733fdba2846040516117739190611dcc565b60405180910390a3505050565b61178861181e565b6117938383836118a5565b505050565b6117a061181e565b600073ffffffffffffffffffffffffffffffffffffffff168173ffffffffffffffffffffffffffffffffffffffff16036118125760006040517f1e4fbdf70000000000000000000000000000000000000000000000000000000081526004016118099190612399565b60405180910390fd5b61181b81611b19565b50565b611826611c2c565b73ffffffffffffffffffffffffffffffffffffffff1661184461139f565b73ffffffffffffffffffffffffffffffffffffffff16146118a357611867611c2c565b6040517f118cdaa700000000000000000000000000000000000000000000000000000000815260040161189a9190612399565b60405180910390fd5b565b600073ffffffffffffffffffffffffffffffffffffffff168373ffffffffffffffffffffffffffffffffffffffff1603611914576040517f08c379a000000000000000000000000000000000000000000000000000000000815260040161190b90612a25565b60405180910390fd5b600260008473ffffffffffffffffffffffffffffffffffffffff1673ffffffffffffffffffffffffffffffffffffffff16815260200190815260200160002060000160009054906101000a900460ff16156119a4576040517f08c379a000000000000000000000000000000000000000000000000000000000815260040161199b90612a91565b60405180910390fd5b60405180608001604052806001151581526020016000815260200183815260200182815250600260008573ffffffffffffffffffffffffffffffffffffffff1673ffffffffffffffffffffffffffffffffffffffff16815260200190815260200160002060008201518160000160006101000a81548160ff021916908315150217905550602082015181600101556040820151816002019081611a479190612c5d565b506060820151816003019081611a5d9190612c5d565b509050506003839080600181540180825580915050600190039060005260206000200160009091909190916101000a81548173ffffffffffffffffffffffffffffffffffffffff021916908373ffffffffffffffffffffffffffffffffffffffff1602179055508273ffffffffffffffffffffffffffffffffffffffff167f2fb34ce114a136590b874d8cf80e7652adda576578bacfa4f8023f720f5693948383604051611b0c929190612d2f565b60405180910390a2505050565b60008060009054906101000a900473ffffffffffffffffffffffffffffffffffffffff169050816000806101000a81548173ffffffffffffffffffffffffffffffffffffffff021916908373ffffffffffffffffffffffffffffffffffffffff1602179055508173ffffffffffffffffffffffffffffffffffffffff168173ffffffffffffffffffffffffffffffffffffffff167f8be0079c531659141344cd1fd0a4f28419497f9722a3daafe3b4186f6b6457e060405160405180910390a35050565b600260015403611c19576040517f3ee5aeb500000000000000000000000000000000000000000000000000000000815260040160405180910390fd5b6002600181905550565b60018081905550565b600033905090565b600081519050919050565b600082825260208201905092915050565b6000819050602082019050919050565b600073ffffffffffffffffffffffffffffffffffffffff82169050919050565b6000611c8b82611c60565b9050919050565b611c9b81611c80565b82525050565b6000611cad8383611c92565b60208301905092915050565b6000602082019050919050565b6000611cd182611c34565b611cdb8185611c3f565b9350611ce683611c50565b8060005b83811015611d17578151611cfe8882611ca1565b9750611d0983611cb9565b925050600181019050611cea565b5085935050505092915050565b60006020820190508181036000830152611d3e8184611cc6565b905092915050565b6000604051905090565b600080fd5b600080fd5b611d6381611c80565b8114611d6e57600080fd5b50565b600081359050611d8081611d5a565b92915050565b600060208284031215611d9c57611d9b611d50565b5b6000611daa84828501611d71565b91505092915050565b6000819050919050565b611dc681611db3565b82525050565b6000602082019050611de16000830184611dbd565b92915050565b60008115159050919050565b611dfc81611de7565b82525050565b600081519050919050565b600082825260208201905092915050565b60005b83811015611e3c578082015181840152602081019050611e21565b60008484015250505050565b6000601f19601f8301169050919050565b6000611e6482611e02565b611e6e8185611e0d565b9350611e7e818560208601611e1e565b611e8781611e48565b840191505092915050565b600060a082019050611ea76000830188611df3565b611eb46020830187611dbd565b611ec16040830186611dbd565b8181036060830152611ed38185611e59565b90508181036080830152611ee78184611e59565b90509695505050505050565b600080fd5b7f4e487b7100000000000000000000000000000000000000000000000000000000600052604160045260246000fd5b611f3082611e48565b810181811067ffffffffffffffff82111715611f4f57611f4e611ef8565b5b80604052505050565b6000611f62611d46565b9050611f6e8282611f27565b919050565b600067ffffffffffffffff821115611f8e57611f8d611ef8565b5b602082029050602081019050919050565b600080fd5b6000611fb7611fb284611f73565b611f58565b90508083825260208201905060208402830185811115611fda57611fd9611f9f565b5b835b818110156120035780611fef8882611d71565b845260208401935050602081019050611fdc565b5050509392505050565b600082601f83011261202257612021611ef3565b5b8135612032848260208601611fa4565b91505092915050565b600067ffffffffffffffff82111561205657612055611ef8565b5b602082029050602081019050919050565b600080fd5b600067ffffffffffffffff82111561208757612086611ef8565b5b61209082611e48565b9050602081019050919050565b82818337600083830152505050565b60006120bf6120ba8461206c565b611f58565b9050828152602081018484840111156120db576120da612067565b5b6120e684828561209d565b509392505050565b600082601f83011261210357612102611ef3565b5b81356121138482602086016120ac565b91505092915050565b600061212f61212a8461203b565b611f58565b9050808382526020820190506020840283018581111561215257612151611f9f565b5b835b8181101561219957803567ffffffffffffffff81111561217757612176611ef3565b5b80860161218489826120ee565b85526020850194505050602081019050612154565b5050509392505050565b600082601f8301126121b8576121b7611ef3565b5b81356121c884826020860161211c565b91505092915050565b6000806000606084860312156121ea576121e9611d50565b5b600084013567ffffffffffffffff81111561220857612207611d55565b5b6122148682870161200d565b935050602084013567ffffffffffffffff81111561223557612234611d55565b5b612241868287016121a3565b925050604084013567ffffffffffffffff81111561226257612261611d55565b5b61226e868287016121a3565b9150509250925092565b61228181611db3565b811461228c57600080fd5b50565b60008135905061229e81612278565b92915050565b6000806000606084860312156122bd576122bc611d50565b5b60006122cb86828701611d71565b93505060206122dc8682870161228f565b92505060406122ed86828701611d71565b9150509250925092565b600060808201905061230c6000830187611df3565b6123196020830186611dbd565b818103604083015261232b8185611e59565b9050818103606083015261233f8184611e59565b905095945050505050565b6000806040838503121561236157612360611d50565b5b600061236f85828601611d71565b92505060206123808582860161228f565b9150509250929050565b61239381611c80565b82525050565b60006020820190506123ae600083018461238a565b92915050565b6000602082840312156123ca576123c9611d50565b5b60006123d88482850161228f565b91505092915050565b6000806000606084860312156123fa576123f9611d50565b5b600061240886828701611d71565b935050602084013567ffffffffffffffff81111561242957612428611d55565b5b612435868287016120ee565b925050604084013567ffffffffffffffff81111561245657612455611d55565b5b612462868287016120ee565b9150509250925092565b60008151905061247b81612278565b92915050565b60006020828403121561249757612496611d50565b5b60006124a58482850161246c565b91505092915050565b7f4e487b7100000000000000000000000000000000000000000000000000000000600052602260045260246000fd5b600060028204905060018216806124f557607f821691505b602082108103612508576125076124ae565b5b50919050565b7f4172726179206c656e677468206d69736d617463680000000000000000000000600082015250565b6000612544601583611e0d565b915061254f8261250e565b602082019050919050565b6000602082019050818103600083015261257381612537565b9050919050565b7f4e487b7100000000000000000000000000000000000000000000000000000000600052603260045260246000fd5b7f496e76616c696420726563697069656e74000000000000000000000000000000600082015250565b60006125df601183611e0d565b91506125ea826125a9565b602082019050919050565b6000602082019050818103600083015261260e816125d2565b9050919050565b7f496e73756666696369656e742062616c616e6365000000000000000000000000600082015250565b600061264b601483611e0d565b915061265682612615565b602082019050919050565b6000602082019050818103600083015261267a8161263e565b9050919050565b6000604082019050612696600083018561238a565b6126a36020830184611dbd565b9392505050565b6126b381611de7565b81146126be57600080fd5b50565b6000815190506126d0816126aa565b92915050565b6000602082840312156126ec576126eb611d50565b5b60006126fa848285016126c1565b91505092915050565b7f5472616e73666572206661696c65640000000000000000000000000000000000600082015250565b6000612739600f83611e0d565b915061274482612703565b602082019050919050565b600060208201905081810360008301526127688161272c565b9050919050565b7f4e487b7100000000000000000000000000000000000000000000000000000000600052601160045260246000fd5b60006127a982611db3565b91506127b483611db3565b92508282039050818111156127cc576127cb61276f565b5b92915050565b7f546f6b656e206e6f7420737570706f7274656400000000000000000000000000600082015250565b6000612808601383611e0d565b9150612813826127d2565b602082019050919050565b60006020820190508181036000830152612837816127fb565b9050919050565b7f4e487b7100000000000000000000000000000000000000000000000000000000600052603160045260246000fd5b7f416d6f756e74206d75737420626520706f736974697665000000000000000000600082015250565b60006128a3601783611e0d565b91506128ae8261286d565b602082019050919050565b600060208201905081810360008301526128d281612896565b9050919050565b60006060820190506128ee600083018661238a565b6128fb602083018561238a565b6129086040830184611dbd565b949350505050565b7f546f6b656e207472616e73666572206661696c65640000000000000000000000600082015250565b6000612946601583611e0d565b915061295182612910565b602082019050919050565b6000602082019050818103600083015261297581612939565b9050919050565b600061298782611db3565b915061299283611db3565b92508282019050808211156129aa576129a961276f565b5b92915050565b60006040820190506129c56000830185611dbd565b6129d26020830184611dbd565b9392505050565b7f496e76616c696420746f6b656e20616464726573730000000000000000000000600082015250565b6000612a0f601583611e0d565b9150612a1a826129d9565b602082019050919050565b60006020820190508181036000830152612a3e81612a02565b9050919050565b7f546f6b656e20616c726561647920737570706f72746564000000000000000000600082015250565b6000612a7b601783611e0d565b9150612a8682612a45565b602082019050919050565b60006020820190508181036000830152612aaa81612a6e565b9050919050565b60008190508160005260206000209050919050565b60006020601f8301049050919050565b600082821b905092915050565b600060088302612b137fffffffffffffffffffffffffffffffffffffffffffffffffffffffffffffffff82612ad6565b612b1d8683612ad6565b95508019841693508086168417925050509392505050565b6000819050919050565b6000612b5a612b55612b5084611db3565b612b35565b611db3565b9050919050565b6000819050919050565b612b7483612b3f565b612b88612b8082612b61565b848454612ae3565b825550505050565b600090565b612b9d612b90565b612ba8818484612b6b565b505050565b5b81811015612bcc57612bc1600082612b95565b600181019050612bae565b5050565b601f821115612c1157612be281612ab1565b612beb84612ac6565b81016020851015612bfa578190505b612c0e612c0685612ac6565b830182612bad565b50505b505050565b600082821c905092915050565b6000612c3460001984600802612c16565b1980831691505092915050565b6000612c4d8383612c23565b9150826002028217905092915050565b612c6682611e02565b67ffffffffffffffff811115612c7f57612c7e611ef8565b5b612c8982546124dd565b612c94828285612bd0565b600060209050601f831160018114612cc75760008415612cb5578287015190505b612cbf8582612c41565b865550612d27565b601f198416612cd586612ab1565b60005b82811015612cfd57848901518255600182019150602085019450602081019050612cd8565b86831015612d1a5784890151612d16601f891682612c23565b8355505b6001600288020188555050505b505050505050565b60006040820190508181036000830152612d498185611e59565b90508181036020830152612d5d8184611e59565b9050939250505056fea26469706673582212203c8b7617cef456ac7c8be49438f0d930d9f8360bc9e3471e70a0104d27125e0b64736f6c63430008180033",
  "linkReferences": {},
  "deployedLinkReferences": {}
}